{
  "_format": "hh-sol-artifact-1",
  "contractName": "Turing",
  "sourceName": "contracts/TuringToken.sol",
  "abi": [
    {
      "inputs": [],
      "stateMutability": "nonpayable",
      "type": "constructor"
    },
    {
      "inputs": [
        {
          "internalType": "address",
          "name": "spender",
          "type": "address"
        },
        {
          "internalType": "uint256",
          "name": "allowance",
          "type": "uint256"
        },
        {
          "internalType": "uint256",
          "name": "needed",
          "type": "uint256"
        }
      ],
      "name": "ERC20InsufficientAllowance",
      "type": "error"
    },
    {
      "inputs": [
        {
          "internalType": "address",
          "name": "sender",
          "type": "address"
        },
        {
          "internalType": "uint256",
          "name": "balance",
          "type": "uint256"
        },
        {
          "internalType": "uint256",
          "name": "needed",
          "type": "uint256"
        }
      ],
      "name": "ERC20InsufficientBalance",
      "type": "error"
    },
    {
      "inputs": [
        {
          "internalType": "address",
          "name": "approver",
          "type": "address"
        }
      ],
      "name": "ERC20InvalidApprover",
      "type": "error"
    },
    {
      "inputs": [
        {
          "internalType": "address",
          "name": "receiver",
          "type": "address"
        }
      ],
      "name": "ERC20InvalidReceiver",
      "type": "error"
    },
    {
      "inputs": [
        {
          "internalType": "address",
          "name": "sender",
          "type": "address"
        }
      ],
      "name": "ERC20InvalidSender",
      "type": "error"
    },
    {
      "inputs": [
        {
          "internalType": "address",
          "name": "spender",
          "type": "address"
        }
      ],
      "name": "ERC20InvalidSpender",
      "type": "error"
    },
    {
      "anonymous": false,
      "inputs": [
        {
          "indexed": true,
          "internalType": "address",
          "name": "owner",
          "type": "address"
        },
        {
          "indexed": true,
          "internalType": "address",
          "name": "spender",
          "type": "address"
        },
        {
          "indexed": false,
          "internalType": "uint256",
          "name": "value",
          "type": "uint256"
        }
      ],
      "name": "Approval",
      "type": "event"
    },
    {
      "anonymous": false,
      "inputs": [
        {
          "indexed": true,
          "internalType": "string",
          "name": "nome",
          "type": "string"
        },
        {
          "indexed": true,
          "internalType": "address",
          "name": "destinatario",
          "type": "address"
        },
        {
          "indexed": false,
          "internalType": "uint256",
          "name": "quantidade",
          "type": "uint256"
        }
      ],
      "name": "TokenEmitido",
      "type": "event"
    },
    {
      "anonymous": false,
      "inputs": [
        {
          "indexed": true,
          "internalType": "address",
          "name": "from",
          "type": "address"
        },
        {
          "indexed": true,
          "internalType": "address",
          "name": "to",
          "type": "address"
        },
        {
          "indexed": false,
          "internalType": "uint256",
          "name": "value",
          "type": "uint256"
        }
      ],
      "name": "Transfer",
      "type": "event"
    },
    {
      "anonymous": false,
      "inputs": [
        {
          "indexed": false,
          "internalType": "bool",
          "name": "estado",
          "type": "bool"
        }
      ],
      "name": "alteracaoEstadoDeVoto",
      "type": "event"
    },
    {
      "anonymous": false,
      "inputs": [
        {
          "indexed": true,
          "internalType": "address",
          "name": "nome",
          "type": "address"
        },
        {
          "indexed": true,
          "internalType": "address",
          "name": "candidato",
          "type": "address"
        },
        {
          "indexed": false,
          "internalType": "uint256",
          "name": "quantidadeSaTurings",
          "type": "uint256"
        }
      ],
      "name": "votoFeito",
      "type": "event"
    },
    {
      "inputs": [],
      "name": "PROFESSORA",
      "outputs": [
        {
          "internalType": "address",
          "name": "",
          "type": "address"
        }
      ],
      "stateMutability": "view",
      "type": "function"
    },
    {
      "inputs": [
        {
          "internalType": "address",
          "name": "owner",
          "type": "address"
        },
        {
          "internalType": "address",
          "name": "spender",
          "type": "address"
        }
      ],
      "name": "allowance",
      "outputs": [
        {
          "internalType": "uint256",
          "name": "",
          "type": "uint256"
        }
      ],
      "stateMutability": "view",
      "type": "function"
    },
    {
      "inputs": [
        {
          "internalType": "address",
          "name": "spender",
          "type": "address"
        },
        {
          "internalType": "uint256",
          "name": "value",
          "type": "uint256"
        }
      ],
      "name": "approve",
      "outputs": [
        {
          "internalType": "bool",
          "name": "",
          "type": "bool"
        }
      ],
      "stateMutability": "nonpayable",
      "type": "function"
    },
    {
      "inputs": [
        {
          "internalType": "address",
          "name": "account",
          "type": "address"
        }
      ],
      "name": "balanceOf",
      "outputs": [
        {
          "internalType": "uint256",
          "name": "",
          "type": "uint256"
        }
      ],
      "stateMutability": "view",
      "type": "function"
    },
    {
      "inputs": [],
      "name": "decimals",
      "outputs": [
        {
          "internalType": "uint8",
          "name": "",
          "type": "uint8"
        }
      ],
      "stateMutability": "view",
      "type": "function"
    },
    {
      "inputs": [],
      "name": "desligarVotacao",
      "outputs": [],
      "stateMutability": "nonpayable",
      "type": "function"
    },
    {
      "inputs": [],
      "name": "donoDoContrato",
      "outputs": [
        {
          "internalType": "address",
          "name": "",
          "type": "address"
        }
      ],
      "stateMutability": "view",
      "type": "function"
    },
    {
      "inputs": [
        {
          "internalType": "address",
          "name": "",
          "type": "address"
        }
      ],
      "name": "enderecoParaNome",
      "outputs": [
        {
          "internalType": "string",
          "name": "",
          "type": "string"
        }
      ],
      "stateMutability": "view",
      "type": "function"
    },
    {
      "inputs": [
        {
          "internalType": "uint256",
          "name": "",
          "type": "uint256"
        }
      ],
      "name": "enderecos",
      "outputs": [
        {
          "internalType": "address",
          "name": "",
          "type": "address"
        }
      ],
      "stateMutability": "view",
      "type": "function"
    },
    {
      "inputs": [
        {
          "internalType": "uint256",
          "name": "indice",
          "type": "uint256"
        }
      ],
      "name": "getNomes",
      "outputs": [
        {
          "internalType": "string",
          "name": "",
          "type": "string"
        }
      ],
      "stateMutability": "view",
      "type": "function"
    },
    {
      "inputs": [
        {
          "internalType": "string",
          "name": "nome",
          "type": "string"
        },
        {
          "internalType": "uint256",
          "name": "quantidadeSaTurings",
          "type": "uint256"
        }
      ],
      "name": "issueToken",
      "outputs": [],
      "stateMutability": "nonpayable",
      "type": "function"
    },
    {
      "inputs": [
        {
          "internalType": "string",
          "name": "",
          "type": "string"
        },
        {
          "internalType": "address",
          "name": "",
          "type": "address"
        }
      ],
      "name": "jaVotouEm",
      "outputs": [
        {
          "internalType": "bool",
          "name": "",
          "type": "bool"
        }
      ],
      "stateMutability": "view",
      "type": "function"
    },
    {
      "inputs": [],
      "name": "ligarVotacao",
      "outputs": [],
      "stateMutability": "nonpayable",
      "type": "function"
    },
    {
      "inputs": [],
      "name": "name",
      "outputs": [
        {
          "internalType": "string",
          "name": "",
          "type": "string"
        }
      ],
      "stateMutability": "view",
      "type": "function"
    },
    {
      "inputs": [
        {
          "internalType": "string",
          "name": "",
          "type": "string"
        }
      ],
      "name": "nomeParaEndereco",
      "outputs": [
        {
          "internalType": "address",
          "name": "",
          "type": "address"
        }
      ],
      "stateMutability": "view",
      "type": "function"
    },
    {
      "inputs": [
        {
          "internalType": "uint256",
          "name": "",
          "type": "uint256"
        }
      ],
      "name": "nomes",
      "outputs": [
        {
          "internalType": "string",
          "name": "",
          "type": "string"
        }
      ],
      "stateMutability": "view",
      "type": "function"
    },
    {
      "inputs": [],
      "name": "symbol",
      "outputs": [
        {
          "internalType": "string",
          "name": "",
          "type": "string"
        }
      ],
      "stateMutability": "view",
      "type": "function"
    },
    {
      "inputs": [],
      "name": "totalSupply",
      "outputs": [
        {
          "internalType": "uint256",
          "name": "",
          "type": "uint256"
        }
      ],
      "stateMutability": "view",
      "type": "function"
    },
    {
      "inputs": [
        {
          "internalType": "address",
          "name": "to",
          "type": "address"
        },
        {
          "internalType": "uint256",
          "name": "value",
          "type": "uint256"
        }
      ],
      "name": "transfer",
      "outputs": [
        {
          "internalType": "bool",
          "name": "",
          "type": "bool"
        }
      ],
      "stateMutability": "nonpayable",
      "type": "function"
    },
    {
      "inputs": [
        {
          "internalType": "address",
          "name": "from",
          "type": "address"
        },
        {
          "internalType": "address",
          "name": "to",
          "type": "address"
        },
        {
          "internalType": "uint256",
          "name": "value",
          "type": "uint256"
        }
      ],
      "name": "transferFrom",
      "outputs": [
        {
          "internalType": "bool",
          "name": "",
          "type": "bool"
        }
      ],
      "stateMutability": "nonpayable",
      "type": "function"
    },
    {
      "inputs": [],
      "name": "votacaoAtiva",
      "outputs": [
        {
          "internalType": "bool",
          "name": "",
          "type": "bool"
        }
      ],
      "stateMutability": "view",
      "type": "function"
    },
    {
      "inputs": [
        {
          "internalType": "string",
          "name": "nome",
          "type": "string"
        },
        {
          "internalType": "uint256",
          "name": "quantidadeSaTurings",
          "type": "uint256"
        }
      ],
      "name": "vote",
      "outputs": [],
      "stateMutability": "nonpayable",
      "type": "function"
    }
  ],
  "bytecode": "0x60806040526001600560006101000a81548160ff02191690831515021790555034801561002b57600080fd5b506040518060400160405280600681526020017f547572696e6700000000000000000000000000000000000000000000000000008152506040518060400160405280600381526020017f545552000000000000000000000000000000000000000000000000000000000081525081600390816100a79190610fd3565b5080600490816100b79190610fd3565b50505033600560016101000a81548173ffffffffffffffffffffffffffffffffffffffff021916908373ffffffffffffffffffffffffffffffffffffffff1602179055506040518061026001604052806040518060400160405280600581526020017f4e6f6d653100000000000000000000000000000000000000000000000000000081525081526020016040518060400160405280600581526020017f4e6f6d653200000000000000000000000000000000000000000000000000000081525081526020016040518060400160405280600581526020017f4e6f6d653300000000000000000000000000000000000000000000000000000081525081526020016040518060400160405280600581526020017f4e6f6d653400000000000000000000000000000000000000000000000000000081525081526020016040518060400160405280600581526020017f4e6f6d653500000000000000000000000000000000000000000000000000000081525081526020016040518060400160405280600581526020017f4e6f6d653600000000000000000000000000000000000000000000000000000081525081526020016040518060400160405280600581526020017f4e6f6d653700000000000000000000000000000000000000000000000000000081525081526020016040518060400160405280600581526020017f4e6f6d653800000000000000000000000000000000000000000000000000000081525081526020016040518060400160405280600581526020017f4e6f6d653900000000000000000000000000000000000000000000000000000081525081526020016040518060400160405280600681526020017f4e6f6d653130000000000000000000000000000000000000000000000000000081525081526020016040518060400160405280600681526020017f4e6f6d653131000000000000000000000000000000000000000000000000000081525081526020016040518060400160405280600681526020017f4e6f6d653132000000000000000000000000000000000000000000000000000081525081526020016040518060400160405280600681526020017f4e6f6d653133000000000000000000000000000000000000000000000000000081525081526020016040518060400160405280600681526020017f4e6f6d653134000000000000000000000000000000000000000000000000000081525081526020016040518060400160405280600681526020017f4e6f6d653135000000000000000000000000000000000000000000000000000081525081526020016040518060400160405280600681526020017f4e6f6d653136000000000000000000000000000000000000000000000000000081525081526020016040518060400160405280600681526020017f4e6f6d653137000000000000000000000000000000000000000000000000000081525081526020016040518060400160405280600681526020017f4e6f6d653138000000000000000000000000000000000000000000000000000081525081526020016040518060400160405280600681526020017f4e6f6d65313900000000000000000000000000000000000000000000000000008152508152506006906013610576929190610c39565b506040518061026001604052807370997970c51812dc3a010c7d01b50e0d17dc79c873ffffffffffffffffffffffffffffffffffffffff1673ffffffffffffffffffffffffffffffffffffffff168152602001733c44cdddb6a900fa2b585dd299e03d12fa4293bc73ffffffffffffffffffffffffffffffffffffffff1673ffffffffffffffffffffffffffffffffffffffff1681526020017390f79bf6eb2c4f870365e785982e1f101e93b90673ffffffffffffffffffffffffffffffffffffffff1673ffffffffffffffffffffffffffffffffffffffff1681526020017315d34aaf54267db7d7c367839aaf71a00a2c6a6573ffffffffffffffffffffffffffffffffffffffff1673ffffffffffffffffffffffffffffffffffffffff168152602001739965507d1a55bcc2695c58ba16fb37d819b0a4dc73ffffffffffffffffffffffffffffffffffffffff1673ffffffffffffffffffffffffffffffffffffffff16815260200173976ea74026e726554db657fa54763abd0c3a0aa973ffffffffffffffffffffffffffffffffffffffff1673ffffffffffffffffffffffffffffffffffffffff1681526020017314dc79964da2c08b23698b3d3cc7ca32193d995573ffffffffffffffffffffffffffffffffffffffff1673ffffffffffffffffffffffffffffffffffffffff1681526020017323618e81e3f5cdf7f54c3d65f7fbc0abf5b21e8f73ffffffffffffffffffffffffffffffffffffffff1673ffffffffffffffffffffffffffffffffffffffff16815260200173a0ee7a142d267c1f36714e4a8f75612f20a7972073ffffffffffffffffffffffffffffffffffffffff1673ffffffffffffffffffffffffffffffffffffffff16815260200173bcd4042de499d14e55001ccbb24a551f3b95409673ffffffffffffffffffffffffffffffffffffffff1673ffffffffffffffffffffffffffffffffffffffff1681526020017371be63f3384f5fb98995898a86b02fb2426c578873ffffffffffffffffffffffffffffffffffffffff1673ffffffffffffffffffffffffffffffffffffffff16815260200173fabb0ac9d68b0b445fb7357272ff202c5651694a73ffffffffffffffffffffffffffffffffffffffff1673ffffffffffffffffffffffffffffffffffffffff168152602001731cbd3b2770909d4e10f157cabc84c7264073c9ec73ffffffffffffffffffffffffffffffffffffffff1673ffffffffffffffffffffffffffffffffffffffff16815260200173df3e18d64bc6a983f673ab319ccae4f1a57c709773ffffffffffffffffffffffffffffffffffffffff1673ffffffffffffffffffffffffffffffffffffffff16815260200173cd3b766ccdd6ae721141f452c550ca635964ce7173ffffffffffffffffffffffffffffffffffffffff1673ffffffffffffffffffffffffffffffffffffffff168152602001732546bcd3c84621e976d8185a91a922ae77ecec3073ffffffffffffffffffffffffffffffffffffffff1673ffffffffffffffffffffffffffffffffffffffff16815260200173bda5747bfd65f08deb54cb465eb87d40e51b197e73ffffffffffffffffffffffffffffffffffffffff1673ffffffffffffffffffffffffffffffffffffffff16815260200173dd2fd4581271e230360230f9337d5c0430bf44c073ffffffffffffffffffffffffffffffffffffffff1673ffffffffffffffffffffffffffffffffffffffff168152602001738626f6940e2eb28930efb4cef49b2d1f2c9c119973ffffffffffffffffffffffffffffffffffffffff1673ffffffffffffffffffffffffffffffffffffffff168152506019906013610ac3929190610c85565b5060005b6013811015610b835760198160138110610ae457610ae36110a5565b5b0160009054906101000a900473ffffffffffffffffffffffffffffffffffffffff16602c60068360138110610b1c57610b1b6110a5565b5b01604051610b2a9190611162565b908152602001604051809103902060006101000a81548173ffffffffffffffffffffffffffffffffffffffff021916908373ffffffffffffffffffffffffffffffffffffffff1602179055508080600101915050610ac7565b5060005b6013811015610c335760068160138110610ba457610ba36110a5565b5b01602d600060198460138110610bbd57610bbc6110a5565b5b0160009054906101000a900473ffffffffffffffffffffffffffffffffffffffff1673ffffffffffffffffffffffffffffffffffffffff1673ffffffffffffffffffffffffffffffffffffffff1681526020019081526020016000209081610c2591906111a4565b508080600101915050610b87565b5061128c565b8260138101928215610c74579160200282015b82811115610c73578251829081610c639190610fd3565b5091602001919060010190610c4c565b5b509050610c819190610d02565b5090565b8260138101928215610cf1579160200282015b82811115610cf05782518260006101000a81548173ffffffffffffffffffffffffffffffffffffffff021916908373ffffffffffffffffffffffffffffffffffffffff16021790555091602001919060010190610c98565b5b509050610cfe9190610d26565b5090565b5b80821115610d225760008181610d199190610d43565b50600101610d03565b5090565b5b80821115610d3f576000816000905550600101610d27565b5090565b508054610d4f90610dec565b6000825580601f10610d615750610d80565b601f016020900490600052602060002090810190610d7f9190610d26565b5b50565b600081519050919050565b7f4e487b7100000000000000000000000000000000000000000000000000000000600052604160045260246000fd5b7f4e487b7100000000000000000000000000000000000000000000000000000000600052602260045260246000fd5b60006002820490506001821680610e0457607f821691505b602082108103610e1757610e16610dbd565b5b50919050565b60008190508160005260206000209050919050565b60006020601f8301049050919050565b600082821b905092915050565b600060088302610e7f7fffffffffffffffffffffffffffffffffffffffffffffffffffffffffffffffff82610e42565b610e898683610e42565b95508019841693508086168417925050509392505050565b6000819050919050565b6000819050919050565b6000610ed0610ecb610ec684610ea1565b610eab565b610ea1565b9050919050565b6000819050919050565b610eea83610eb5565b610efe610ef682610ed7565b848454610e4f565b825550505050565b600090565b610f13610f06565b610f1e818484610ee1565b505050565b5b81811015610f4257610f37600082610f0b565b600181019050610f24565b5050565b601f821115610f8757610f5881610e1d565b610f6184610e32565b81016020851015610f70578190505b610f84610f7c85610e32565b830182610f23565b50505b505050565b600082821c905092915050565b6000610faa60001984600802610f8c565b1980831691505092915050565b6000610fc38383610f99565b9150826002028217905092915050565b610fdc82610d83565b67ffffffffffffffff811115610ff557610ff4610d8e565b5b610fff8254610dec565b61100a828285610f46565b600060209050601f83116001811461103d576000841561102b578287015190505b6110358582610fb7565b86555061109d565b601f19841661104b86610e1d565b60005b828110156110735784890151825560018201915060208501945060208101905061104e565b86831015611090578489015161108c601f891682610f99565b8355505b6001600288020188555050505b505050505050565b7f4e487b7100000000000000000000000000000000000000000000000000000000600052603260045260246000fd5b600081905092915050565b600081546110ec81610dec565b6110f681866110d4565b94506001821660008114611111576001811461112657611159565b60ff1983168652811515820286019350611159565b61112f85610e1d565b60005b8381101561115157815481890152600182019150602081019050611132565b838801955050505b50505092915050565b600061116e82846110df565b915081905092915050565b60008154905061118881610dec565b9050919050565b60008190508160005260206000209050919050565b8181036111b257505061128a565b6111bb82611179565b67ffffffffffffffff8111156111d4576111d3610d8e565b5b6111de8254610dec565b6111e9828285610f46565b6000601f8311600181146112185760008415611206578287015490505b6112108582610fb7565b865550611283565b601f1984166112268761118f565b965061123186610e1d565b60005b8281101561125957848901548255600182019150600185019450602081019050611234565b868310156112765784890154611272601f891682610f99565b8355505b6001600288020188555050505b5050505050505b565b6123018061129b6000396000f3fe608060405234801561001057600080fd5b50600436106101415760003560e01c806376ea384c116100b8578063a9059cbb1161007c578063a9059cbb146103a0578063b06060ed146103d0578063c683e0f414610400578063dd62ed3e1461041c578063f8c864601461044c578063fe0ba9de1461045657610141565b806376ea384c146102fa57806395a5a0821461031857806395d89b4114610336578063a638580314610354578063a741f81e1461037057610141565b806324d28b6c1161010a57806324d28b6c146101ec578063313ce5671461021c578063383d2bbe1461023a5780634d04fbcc1461026a57806359d8b2bc1461029a57806370a08231146102ca57610141565b80621a35a71461014657806306fdde0314610150578063095ea7b31461016e57806318160ddd1461019e57806323b872dd146101bc575b600080fd5b61014e610474565b005b6101586105a3565b604051610165919061196d565b60405180910390f35b61018860048036038101906101839190611a37565b610635565b6040516101959190611a92565b60405180910390f35b6101a6610658565b6040516101b39190611abc565b60405180910390f35b6101d660048036038101906101d19190611ad7565b610662565b6040516101e39190611a92565b60405180910390f35b61020660048036038101906102019190611b2a565b610691565b604051610213919061196d565b60405180910390f35b610224610731565b6040516102319190611b73565b60405180910390f35b610254600480360381019061024f9190611b8e565b61073a565b6040516102619190611bca565b60405180910390f35b610284600480360381019061027f9190611d1a565b610770565b6040516102919190611a92565b60405180910390f35b6102b460048036038101906102af9190611b8e565b6107b5565b6040516102c1919061196d565b60405180910390f35b6102e460048036038101906102df9190611b2a565b610858565b6040516102f19190611abc565b60405180910390f35b6103026108a0565b60405161030f9190611bca565b60405180910390f35b6103206108b8565b60405161032d9190611a92565b60405180910390f35b61033e6108cb565b60405161034b919061196d565b60405180910390f35b61036e60048036038101906103699190611d76565b61095d565b005b61038a60048036038101906103859190611b8e565b610d8e565b604051610397919061196d565b60405180910390f35b6103ba60048036038101906103b59190611a37565b610e35565b6040516103c79190611a92565b60405180910390f35b6103ea60048036038101906103e59190611dd2565b610e58565b6040516103f79190611bca565b60405180910390f35b61041a60048036038101906104159190611d76565b610ea1565b005b61043660048036038101906104319190611e1b565b6110e0565b6040516104439190611abc565b60405180910390f35b610454611167565b005b61045e611296565b60405161046b9190611bca565b60405180910390f35b600560019054906101000a900473ffffffffffffffffffffffffffffffffffffffff1673ffffffffffffffffffffffffffffffffffffffff163373ffffffffffffffffffffffffffffffffffffffff16148061050f575073502542668af09fa7aea52174b9965a7799343df773ffffffffffffffffffffffffffffffffffffffff163373ffffffffffffffffffffffffffffffffffffffff16145b61054e576040517f08c379a000000000000000000000000000000000000000000000000000000000815260040161054590611ea7565b60405180910390fd5b6001600560006101000a81548160ff0219169083151502179055507f5cbaf8a05ecf61399e0726d659b667eb527d5bd5fd3678e8f995ede9f0e5844660016040516105999190611a92565b60405180910390a1565b6060600380546105b290611ef6565b80601f01602080910402602001604051908101604052809291908181526020018280546105de90611ef6565b801561062b5780601f106106005761010080835404028352916020019161062b565b820191906000526020600020905b81548152906001019060200180831161060e57829003601f168201915b5050505050905090565b6000806106406112bc565b905061064d8185856112c4565b600191505092915050565b6000600254905090565b60008061066d6112bc565b905061067a8582856112d6565b61068585858561136b565b60019150509392505050565b602d60205280600052604060002060009150905080546106b090611ef6565b80601f01602080910402602001604051908101604052809291908181526020018280546106dc90611ef6565b80156107295780601f106106fe57610100808354040283529160200191610729565b820191906000526020600020905b81548152906001019060200180831161070c57829003601f168201915b505050505081565b60006012905090565b6019816013811061074a57600080fd5b016000915054906101000a900473ffffffffffffffffffffffffffffffffffffffff1681565b602e828051602081018201805184825260208301602085012081835280955050505050506020528060005260406000206000915091509054906101000a900460ff1681565b600681601381106107c557600080fd5b0160009150905080546107d790611ef6565b80601f016020809104026020016040519081016040528092919081815260200182805461080390611ef6565b80156108505780601f1061082557610100808354040283529160200191610850565b820191906000526020600020905b81548152906001019060200180831161083357829003601f168201915b505050505081565b60008060008373ffffffffffffffffffffffffffffffffffffffff1673ffffffffffffffffffffffffffffffffffffffff168152602001908152602001600020549050919050565b73502542668af09fa7aea52174b9965a7799343df781565b600560009054906101000a900460ff1681565b6060600480546108da90611ef6565b80601f016020809104026020016040519081016040528092919081815260200182805461090690611ef6565b80156109535780601f1061092857610100808354040283529160200191610953565b820191906000526020600020905b81548152906001019060200180831161093657829003601f168201915b5050505050905090565b600560009054906101000a900460ff166109ac576040517f08c379a00000000000000000000000000000000000000000000000000000000081526004016109a390611f73565b60405180910390fd5b81600073ffffffffffffffffffffffffffffffffffffffff16602c826040516109d59190611fcf565b908152602001604051809103902060009054906101000a900473ffffffffffffffffffffffffffffffffffffffff1673ffffffffffffffffffffffffffffffffffffffff1603610a5a576040517f08c379a0000000000000000000000000000000000000000000000000000000008152600401610a5190612032565b60405180910390fd5b6000602d60003373ffffffffffffffffffffffffffffffffffffffff1673ffffffffffffffffffffffffffffffffffffffff1681526020019081526020016000208054610aa690611ef6565b905011610ae8576040517f08c379a0000000000000000000000000000000000000000000000000000000008152600401610adf9061209e565b60405180910390fd5b6000602c84604051610afa9190611fcf565b908152602001604051809103902060009054906101000a900473ffffffffffffffffffffffffffffffffffffffff16905060006702c68af0bb1400009050602e85604051610b489190611fcf565b908152602001604051809103902060008373ffffffffffffffffffffffffffffffffffffffff1673ffffffffffffffffffffffffffffffffffffffff16815260200190815260200160002060009054906101000a900460ff1615610be1576040517f08c379a0000000000000000000000000000000000000000000000000000000008152600401610bd89061210a565b60405180910390fd5b3373ffffffffffffffffffffffffffffffffffffffff168273ffffffffffffffffffffffffffffffffffffffff1603610c4f576040517f08c379a0000000000000000000000000000000000000000000000000000000008152600401610c4690612176565b60405180910390fd5b671bc16d674ec80000841115610c9a576040517f08c379a0000000000000000000000000000000000000000000000000000000008152600401610c91906121e2565b60405180910390fd5b610ca4828561145f565b610cae338261145f565b6001602e86604051610cc09190611fcf565b908152602001604051809103902060008473ffffffffffffffffffffffffffffffffffffffff1673ffffffffffffffffffffffffffffffffffffffff16815260200190815260200160002060006101000a81548160ff0219169083151502179055508173ffffffffffffffffffffffffffffffffffffffff163373ffffffffffffffffffffffffffffffffffffffff167f0f7f48a909281e07d2088ba4a5ff889e2a87b90aa7dcd119a7b7983704b1f3a186604051610d7f9190611abc565b60405180910390a35050505050565b606060068260138110610da457610da3612202565b5b018054610db090611ef6565b80601f0160208091040260200160405190810160405280929190818152602001828054610ddc90611ef6565b8015610e295780601f10610dfe57610100808354040283529160200191610e29565b820191906000526020600020905b815481529060010190602001808311610e0c57829003601f168201915b50505050509050919050565b600080610e406112bc565b9050610e4d81858561136b565b600191505092915050565b602c818051602081018201805184825260208301602085012081835280955050505050506000915054906101000a900473ffffffffffffffffffffffffffffffffffffffff1681565b600560019054906101000a900473ffffffffffffffffffffffffffffffffffffffff1673ffffffffffffffffffffffffffffffffffffffff163373ffffffffffffffffffffffffffffffffffffffff161480610f3c575073502542668af09fa7aea52174b9965a7799343df773ffffffffffffffffffffffffffffffffffffffff163373ffffffffffffffffffffffffffffffffffffffff16145b610f7b576040517f08c379a0000000000000000000000000000000000000000000000000000000008152600401610f7290611ea7565b60405180910390fd5b81600073ffffffffffffffffffffffffffffffffffffffff16602c82604051610fa49190611fcf565b908152602001604051809103902060009054906101000a900473ffffffffffffffffffffffffffffffffffffffff1673ffffffffffffffffffffffffffffffffffffffff1603611029576040517f08c379a000000000000000000000000000000000000000000000000000000000815260040161102090612032565b60405180910390fd5b6000602c8460405161103b9190611fcf565b908152602001604051809103902060009054906101000a900473ffffffffffffffffffffffffffffffffffffffff169050611076818461145f565b8073ffffffffffffffffffffffffffffffffffffffff168460405161109b9190611fcf565b60405180910390207fedfaaae621639ee8f06b77cb98ca1d6cfbf00a8430ca32641ba868f23e95f305856040516110d29190611abc565b60405180910390a350505050565b6000600160008473ffffffffffffffffffffffffffffffffffffffff1673ffffffffffffffffffffffffffffffffffffffff16815260200190815260200160002060008373ffffffffffffffffffffffffffffffffffffffff1673ffffffffffffffffffffffffffffffffffffffff16815260200190815260200160002054905092915050565b600560019054906101000a900473ffffffffffffffffffffffffffffffffffffffff1673ffffffffffffffffffffffffffffffffffffffff163373ffffffffffffffffffffffffffffffffffffffff161480611202575073502542668af09fa7aea52174b9965a7799343df773ffffffffffffffffffffffffffffffffffffffff163373ffffffffffffffffffffffffffffffffffffffff16145b611241576040517f08c379a000000000000000000000000000000000000000000000000000000000815260040161123890611ea7565b60405180910390fd5b6000600560006101000a81548160ff0219169083151502179055507f5cbaf8a05ecf61399e0726d659b667eb527d5bd5fd3678e8f995ede9f0e58446600060405161128c9190611a92565b60405180910390a1565b600560019054906101000a900473ffffffffffffffffffffffffffffffffffffffff1681565b600033905090565b6112d183838360016114e1565b505050565b60006112e284846110e0565b90507fffffffffffffffffffffffffffffffffffffffffffffffffffffffffffffffff8110156113655781811015611355578281836040517ffb8f41b200000000000000000000000000000000000000000000000000000000815260040161134c93929190612231565b60405180910390fd5b611364848484840360006114e1565b5b50505050565b600073ffffffffffffffffffffffffffffffffffffffff168373ffffffffffffffffffffffffffffffffffffffff16036113dd5760006040517f96c6fd1e0000000000000000000000000000000000000000000000000000000081526004016113d49190611bca565b60405180910390fd5b600073ffffffffffffffffffffffffffffffffffffffff168273ffffffffffffffffffffffffffffffffffffffff160361144f5760006040517fec442f050000000000000000000000000000000000000000000000000000000081526004016114469190611bca565b60405180910390fd5b61145a8383836116b8565b505050565b600073ffffffffffffffffffffffffffffffffffffffff168273ffffffffffffffffffffffffffffffffffffffff16036114d15760006040517fec442f050000000000000000000000000000000000000000000000000000000081526004016114c89190611bca565b60405180910390fd5b6114dd600083836116b8565b5050565b600073ffffffffffffffffffffffffffffffffffffffff168473ffffffffffffffffffffffffffffffffffffffff16036115535760006040517fe602df0500000000000000000000000000000000000000000000000000000000815260040161154a9190611bca565b60405180910390fd5b600073ffffffffffffffffffffffffffffffffffffffff168373ffffffffffffffffffffffffffffffffffffffff16036115c55760006040517f94280d620000000000000000000000000000000000000000000000000000000081526004016115bc9190611bca565b60405180910390fd5b81600160008673ffffffffffffffffffffffffffffffffffffffff1673ffffffffffffffffffffffffffffffffffffffff16815260200190815260200160002060008573ffffffffffffffffffffffffffffffffffffffff1673ffffffffffffffffffffffffffffffffffffffff1681526020019081526020016000208190555080156116b2578273ffffffffffffffffffffffffffffffffffffffff168473ffffffffffffffffffffffffffffffffffffffff167f8c5be1e5ebec7d5bd14f71427d1e84f3dd0314c0f7b2291e5b200ac8c7c3b925846040516116a99190611abc565b60405180910390a35b50505050565b600073ffffffffffffffffffffffffffffffffffffffff168373ffffffffffffffffffffffffffffffffffffffff160361170a5780600260008282546116fe9190612297565b925050819055506117dd565b60008060008573ffffffffffffffffffffffffffffffffffffffff1673ffffffffffffffffffffffffffffffffffffffff16815260200190815260200160002054905081811015611796578381836040517fe450d38c00000000000000000000000000000000000000000000000000000000815260040161178d93929190612231565b60405180910390fd5b8181036000808673ffffffffffffffffffffffffffffffffffffffff1673ffffffffffffffffffffffffffffffffffffffff16815260200190815260200160002081905550505b600073ffffffffffffffffffffffffffffffffffffffff168273ffffffffffffffffffffffffffffffffffffffff16036118265780600260008282540392505081905550611873565b806000808473ffffffffffffffffffffffffffffffffffffffff1673ffffffffffffffffffffffffffffffffffffffff168152602001908152602001600020600082825401925050819055505b8173ffffffffffffffffffffffffffffffffffffffff168373ffffffffffffffffffffffffffffffffffffffff167fddf252ad1be2c89b69c2b068fc378daa952ba7f163c4a11628f55a4df523b3ef836040516118d09190611abc565b60405180910390a3505050565b600081519050919050565b600082825260208201905092915050565b60005b838110156119175780820151818401526020810190506118fc565b60008484015250505050565b6000601f19601f8301169050919050565b600061193f826118dd565b61194981856118e8565b93506119598185602086016118f9565b61196281611923565b840191505092915050565b600060208201905081810360008301526119878184611934565b905092915050565b6000604051905090565b600080fd5b600080fd5b600073ffffffffffffffffffffffffffffffffffffffff82169050919050565b60006119ce826119a3565b9050919050565b6119de816119c3565b81146119e957600080fd5b50565b6000813590506119fb816119d5565b92915050565b6000819050919050565b611a1481611a01565b8114611a1f57600080fd5b50565b600081359050611a3181611a0b565b92915050565b60008060408385031215611a4e57611a4d611999565b5b6000611a5c858286016119ec565b9250506020611a6d85828601611a22565b9150509250929050565b60008115159050919050565b611a8c81611a77565b82525050565b6000602082019050611aa76000830184611a83565b92915050565b611ab681611a01565b82525050565b6000602082019050611ad16000830184611aad565b92915050565b600080600060608486031215611af057611aef611999565b5b6000611afe868287016119ec565b9350506020611b0f868287016119ec565b9250506040611b2086828701611a22565b9150509250925092565b600060208284031215611b4057611b3f611999565b5b6000611b4e848285016119ec565b91505092915050565b600060ff82169050919050565b611b6d81611b57565b82525050565b6000602082019050611b886000830184611b64565b92915050565b600060208284031215611ba457611ba3611999565b5b6000611bb284828501611a22565b91505092915050565b611bc4816119c3565b82525050565b6000602082019050611bdf6000830184611bbb565b92915050565b600080fd5b600080fd5b7f4e487b7100000000000000000000000000000000000000000000000000000000600052604160045260246000fd5b611c2782611923565b810181811067ffffffffffffffff82111715611c4657611c45611bef565b5b80604052505050565b6000611c5961198f565b9050611c658282611c1e565b919050565b600067ffffffffffffffff821115611c8557611c84611bef565b5b611c8e82611923565b9050602081019050919050565b82818337600083830152505050565b6000611cbd611cb884611c6a565b611c4f565b905082815260208101848484011115611cd957611cd8611bea565b5b611ce4848285611c9b565b509392505050565b600082601f830112611d0157611d00611be5565b5b8135611d11848260208601611caa565b91505092915050565b60008060408385031215611d3157611d30611999565b5b600083013567ffffffffffffffff811115611d4f57611d4e61199e565b5b611d5b85828601611cec565b9250506020611d6c858286016119ec565b9150509250929050565b60008060408385031215611d8d57611d8c611999565b5b600083013567ffffffffffffffff811115611dab57611daa61199e565b5b611db785828601611cec565b9250506020611dc885828601611a22565b9150509250929050565b600060208284031215611de857611de7611999565b5b600082013567ffffffffffffffff811115611e0657611e0561199e565b5b611e1284828501611cec565b91505092915050565b60008060408385031215611e3257611e31611999565b5b6000611e40858286016119ec565b9250506020611e51858286016119ec565b9150509250929050565b7f53656d207072656d697373616f00000000000000000000000000000000000000600082015250565b6000611e91600d836118e8565b9150611e9c82611e5b565b602082019050919050565b60006020820190508181036000830152611ec081611e84565b9050919050565b7f4e487b7100000000000000000000000000000000000000000000000000000000600052602260045260246000fd5b60006002820490506001821680611f0e57607f821691505b602082108103611f2157611f20611ec7565b5b50919050565b7f566f746163616f206e616f206573746120617469766100000000000000000000600082015250565b6000611f5d6016836118e8565b9150611f6882611f27565b602082019050919050565b60006020820190508181036000830152611f8c81611f50565b9050919050565b600081905092915050565b6000611fa9826118dd565b611fb38185611f93565b9350611fc38185602086016118f9565b80840191505092915050565b6000611fdb8284611f9e565b915081905092915050565b7f4e6f6d6520666f7261206461206c697374610000000000000000000000000000600082015250565b600061201c6012836118e8565b915061202782611fe6565b602082019050919050565b6000602082019050818103600083015261204b8161200f565b9050919050565b7f53657520656e64657265636f206e616f2065737461206e61206c697374610000600082015250565b6000612088601e836118e8565b915061209382612052565b602082019050919050565b600060208201905081810360008301526120b78161207b565b9050919050565b7f4a6120766f746f75206e657373652063616e64696461746f0000000000000000600082015250565b60006120f46018836118e8565b91506120ff826120be565b602082019050919050565b60006020820190508181036000830152612123816120e7565b9050919050565b7f4e616f20706f646520766f74617220656d207369206d65736d6f000000000000600082015250565b6000612160601a836118e8565b915061216b8261212a565b602082019050919050565b6000602082019050818103600083015261218f81612153565b9050919050565b7f4c696d697465206465205361547572696e677320657863656469646f00000000600082015250565b60006121cc601c836118e8565b91506121d782612196565b602082019050919050565b600060208201905081810360008301526121fb816121bf565b9050919050565b7f4e487b7100000000000000000000000000000000000000000000000000000000600052603260045260246000fd5b60006060820190506122466000830186611bbb565b6122536020830185611aad565b6122606040830184611aad565b949350505050565b7f4e487b7100000000000000000000000000000000000000000000000000000000600052601160045260246000fd5b60006122a282611a01565b91506122ad83611a01565b92508282019050808211156122c5576122c4612268565b5b9291505056fea26469706673582212205d077326f6026768342f08b66776a2c554829a5dee0cabee8c4a46ddfe5e8c5364736f6c634300081c0033",
  "linkReferences": {},
  "deployedLinkReferences": {}
}